{
  "_format": "hh-sol-artifact-1",
  "contractName": "Finvest",
  "sourceName": "contracts/Finvest.sol",
  "abi": [
    {
      "inputs": [
        {
          "internalType": "address",
          "name": "initialOwner",
          "type": "address"
        }
      ],
      "stateMutability": "nonpayable",
      "type": "constructor"
    },
    {
      "inputs": [
        {
          "internalType": "address",
          "name": "sender",
          "type": "address"
        },
        {
          "internalType": "uint256",
          "name": "tokenId",
          "type": "uint256"
        },
        {
          "internalType": "address",
          "name": "owner",
          "type": "address"
        }
      ],
      "name": "ERC721IncorrectOwner",
      "type": "error"
    },
    {
      "inputs": [
        {
          "internalType": "address",
          "name": "operator",
          "type": "address"
        },
        {
          "internalType": "uint256",
          "name": "tokenId",
          "type": "uint256"
        }
      ],
      "name": "ERC721InsufficientApproval",
      "type": "error"
    },
    {
      "inputs": [
        {
          "internalType": "address",
          "name": "approver",
          "type": "address"
        }
      ],
      "name": "ERC721InvalidApprover",
      "type": "error"
    },
    {
      "inputs": [
        {
          "internalType": "address",
          "name": "operator",
          "type": "address"
        }
      ],
      "name": "ERC721InvalidOperator",
      "type": "error"
    },
    {
      "inputs": [
        {
          "internalType": "address",
          "name": "owner",
          "type": "address"
        }
      ],
      "name": "ERC721InvalidOwner",
      "type": "error"
    },
    {
      "inputs": [
        {
          "internalType": "address",
          "name": "receiver",
          "type": "address"
        }
      ],
      "name": "ERC721InvalidReceiver",
      "type": "error"
    },
    {
      "inputs": [
        {
          "internalType": "address",
          "name": "sender",
          "type": "address"
        }
      ],
      "name": "ERC721InvalidSender",
      "type": "error"
    },
    {
      "inputs": [
        {
          "internalType": "uint256",
          "name": "tokenId",
          "type": "uint256"
        }
      ],
      "name": "ERC721NonexistentToken",
      "type": "error"
    },
    {
      "inputs": [
        {
          "internalType": "address",
          "name": "owner",
          "type": "address"
        }
      ],
      "name": "OwnableInvalidOwner",
      "type": "error"
    },
    {
      "inputs": [
        {
          "internalType": "address",
          "name": "account",
          "type": "address"
        }
      ],
      "name": "OwnableUnauthorizedAccount",
      "type": "error"
    },
    {
      "anonymous": false,
      "inputs": [
        {
          "indexed": true,
          "internalType": "address",
          "name": "owner",
          "type": "address"
        },
        {
          "indexed": true,
          "internalType": "address",
          "name": "approved",
          "type": "address"
        },
        {
          "indexed": true,
          "internalType": "uint256",
          "name": "tokenId",
          "type": "uint256"
        }
      ],
      "name": "Approval",
      "type": "event"
    },
    {
      "anonymous": false,
      "inputs": [
        {
          "indexed": true,
          "internalType": "address",
          "name": "owner",
          "type": "address"
        },
        {
          "indexed": true,
          "internalType": "address",
          "name": "operator",
          "type": "address"
        },
        {
          "indexed": false,
          "internalType": "bool",
          "name": "approved",
          "type": "bool"
        }
      ],
      "name": "ApprovalForAll",
      "type": "event"
    },
    {
      "anonymous": false,
      "inputs": [
        {
          "indexed": false,
          "internalType": "uint256",
          "name": "projectId",
          "type": "uint256"
        },
        {
          "indexed": false,
          "internalType": "address",
          "name": "contributor",
          "type": "address"
        },
        {
          "indexed": false,
          "internalType": "uint256",
          "name": "amount",
          "type": "uint256"
        }
      ],
      "name": "ContributionMade",
      "type": "event"
    },
    {
      "anonymous": false,
      "inputs": [
        {
          "indexed": false,
          "internalType": "uint256",
          "name": "projectId",
          "type": "uint256"
        },
        {
          "indexed": false,
          "internalType": "uint256",
          "name": "milestoneIndex",
          "type": "uint256"
        }
      ],
      "name": "FundsTransferred",
      "type": "event"
    },
    {
      "anonymous": false,
      "inputs": [
        {
          "indexed": false,
          "internalType": "address",
          "name": "recipient",
          "type": "address"
        },
        {
          "indexed": false,
          "internalType": "uint256",
          "name": "tokenId",
          "type": "uint256"
        }
      ],
      "name": "NFTMinted",
      "type": "event"
    },
    {
      "anonymous": false,
      "inputs": [
        {
          "indexed": true,
          "internalType": "address",
          "name": "previousOwner",
          "type": "address"
        },
        {
          "indexed": true,
          "internalType": "address",
          "name": "newOwner",
          "type": "address"
        }
      ],
      "name": "OwnershipTransferred",
      "type": "event"
    },
    {
      "anonymous": false,
      "inputs": [
        {
          "indexed": false,
          "internalType": "uint256",
          "name": "projectId",
          "type": "uint256"
        }
      ],
      "name": "ProjectCreated",
      "type": "event"
    },
    {
      "anonymous": false,
      "inputs": [
        {
          "indexed": true,
          "internalType": "address",
          "name": "from",
          "type": "address"
        },
        {
          "indexed": true,
          "internalType": "address",
          "name": "to",
          "type": "address"
        },
        {
          "indexed": true,
          "internalType": "uint256",
          "name": "tokenId",
          "type": "uint256"
        }
      ],
      "name": "Transfer",
      "type": "event"
    },
    {
      "anonymous": false,
      "inputs": [
        {
          "indexed": false,
          "internalType": "uint256",
          "name": "projectId",
          "type": "uint256"
        },
        {
          "indexed": false,
          "internalType": "address",
          "name": "contributor",
          "type": "address"
        },
        {
          "indexed": false,
          "internalType": "uint256",
          "name": "amount",
          "type": "uint256"
        }
      ],
      "name": "WithdrawalMade",
      "type": "event"
    },
    {
      "inputs": [
        {
          "internalType": "address",
          "name": "to",
          "type": "address"
        },
        {
          "internalType": "uint256",
          "name": "tokenId",
          "type": "uint256"
        }
      ],
      "name": "approve",
      "outputs": [],
      "stateMutability": "nonpayable",
      "type": "function"
    },
    {
      "inputs": [
        {
          "internalType": "address",
          "name": "owner",
          "type": "address"
        }
      ],
      "name": "balanceOf",
      "outputs": [
        {
          "internalType": "uint256",
          "name": "",
          "type": "uint256"
        }
      ],
      "stateMutability": "view",
      "type": "function"
    },
    {
      "inputs": [
        {
          "internalType": "uint256",
          "name": "projectId",
          "type": "uint256"
        }
      ],
      "name": "contribute",
      "outputs": [],
      "stateMutability": "payable",
      "type": "function"
    },
    {
      "inputs": [
        {
          "internalType": "uint256",
          "name": "totalAmount",
          "type": "uint256"
        },
        {
          "components": [
            {
              "internalType": "string",
              "name": "title",
              "type": "string"
            },
            {
              "internalType": "uint256",
              "name": "amountRequired",
              "type": "uint256"
            },
            {
              "internalType": "address payable",
              "name": "recipient",
              "type": "address"
            },
            {
              "internalType": "bool",
              "name": "isCompleted",
              "type": "bool"
            }
          ],
          "internalType": "struct Finvest.Milestone[]",
          "name": "milestones",
          "type": "tuple[]"
        }
      ],
      "name": "createProject",
      "outputs": [],
      "stateMutability": "nonpayable",
      "type": "function"
    },
    {
      "inputs": [
        {
          "internalType": "uint256",
          "name": "tokenId",
          "type": "uint256"
        }
      ],
      "name": "getApproved",
      "outputs": [
        {
          "internalType": "address",
          "name": "",
          "type": "address"
        }
      ],
      "stateMutability": "view",
      "type": "function"
    },
    {
      "inputs": [
        {
          "internalType": "uint256",
          "name": "projectId",
          "type": "uint256"
        },
        {
          "internalType": "address",
          "name": "contributor",
          "type": "address"
        }
      ],
      "name": "getContribution",
      "outputs": [
        {
          "internalType": "uint256",
          "name": "",
          "type": "uint256"
        }
      ],
      "stateMutability": "view",
      "type": "function"
    },
    {
      "inputs": [
        {
          "internalType": "uint256",
          "name": "projectId",
          "type": "uint256"
        }
      ],
      "name": "getContributorCount",
      "outputs": [
        {
          "internalType": "uint256",
          "name": "",
          "type": "uint256"
        }
      ],
      "stateMutability": "view",
      "type": "function"
    },
    {
      "inputs": [
        {
          "internalType": "uint256",
          "name": "projectId",
          "type": "uint256"
        }
      ],
      "name": "getContributors",
      "outputs": [
        {
          "internalType": "address[]",
          "name": "",
          "type": "address[]"
        }
      ],
      "stateMutability": "view",
      "type": "function"
    },
    {
      "inputs": [
        {
          "internalType": "uint256",
          "name": "projectId",
          "type": "uint256"
        },
        {
          "internalType": "uint256",
          "name": "milestoneIndex",
          "type": "uint256"
        }
      ],
      "name": "getMilestone",
      "outputs": [
        {
          "internalType": "string",
          "name": "title",
          "type": "string"
        },
        {
          "internalType": "uint256",
          "name": "amountRequired",
          "type": "uint256"
        },
        {
          "internalType": "address",
          "name": "recipient",
          "type": "address"
        },
        {
          "internalType": "bool",
          "name": "isCompleted",
          "type": "bool"
        }
      ],
      "stateMutability": "view",
      "type": "function"
    },
    {
      "inputs": [
        {
          "internalType": "uint256",
          "name": "projectId",
          "type": "uint256"
        }
      ],
      "name": "getProject",
      "outputs": [
        {
          "internalType": "uint256",
          "name": "totalAmount",
          "type": "uint256"
        },
        {
          "internalType": "uint256",
          "name": "amountRaised",
          "type": "uint256"
        },
        {
          "internalType": "bool",
          "name": "isActive",
          "type": "bool"
        },
        {
          "internalType": "uint256",
          "name": "milestoneCount",
          "type": "uint256"
        }
      ],
      "stateMutability": "view",
      "type": "function"
    },
    {
      "inputs": [
        {
          "internalType": "address",
          "name": "contributor",
          "type": "address"
        }
      ],
      "name": "hasNFT",
      "outputs": [
        {
          "internalType": "bool",
          "name": "",
          "type": "bool"
        }
      ],
      "stateMutability": "view",
      "type": "function"
    },
    {
      "inputs": [
        {
          "internalType": "address",
          "name": "owner",
          "type": "address"
        },
        {
          "internalType": "address",
          "name": "operator",
          "type": "address"
        }
      ],
      "name": "isApprovedForAll",
      "outputs": [
        {
          "internalType": "bool",
          "name": "",
          "type": "bool"
        }
      ],
      "stateMutability": "view",
      "type": "function"
    },
    {
      "inputs": [],
      "name": "name",
      "outputs": [
        {
          "internalType": "string",
          "name": "",
          "type": "string"
        }
      ],
      "stateMutability": "view",
      "type": "function"
    },
    {
      "inputs": [],
      "name": "owner",
      "outputs": [
        {
          "internalType": "address",
          "name": "",
          "type": "address"
        }
      ],
      "stateMutability": "view",
      "type": "function"
    },
    {
      "inputs": [
        {
          "internalType": "uint256",
          "name": "tokenId",
          "type": "uint256"
        }
      ],
      "name": "ownerOf",
      "outputs": [
        {
          "internalType": "address",
          "name": "",
          "type": "address"
        }
      ],
      "stateMutability": "view",
      "type": "function"
    },
    {
      "inputs": [],
      "name": "projectCount",
      "outputs": [
        {
          "internalType": "uint256",
          "name": "",
          "type": "uint256"
        }
      ],
      "stateMutability": "view",
      "type": "function"
    },
    {
      "inputs": [
        {
          "internalType": "uint256",
          "name": "",
          "type": "uint256"
        }
      ],
      "name": "projects",
      "outputs": [
        {
          "internalType": "uint256",
          "name": "totalAmount",
          "type": "uint256"
        },
        {
          "internalType": "uint256",
          "name": "amountRaised",
          "type": "uint256"
        },
        {
          "internalType": "bool",
          "name": "isActive",
          "type": "bool"
        }
      ],
      "stateMutability": "view",
      "type": "function"
    },
    {
      "inputs": [],
      "name": "renounceOwnership",
      "outputs": [],
      "stateMutability": "nonpayable",
      "type": "function"
    },
    {
      "inputs": [
        {
          "internalType": "address",
          "name": "from",
          "type": "address"
        },
        {
          "internalType": "address",
          "name": "to",
          "type": "address"
        },
        {
          "internalType": "uint256",
          "name": "tokenId",
          "type": "uint256"
        }
      ],
      "name": "safeTransferFrom",
      "outputs": [],
      "stateMutability": "nonpayable",
      "type": "function"
    },
    {
      "inputs": [
        {
          "internalType": "address",
          "name": "from",
          "type": "address"
        },
        {
          "internalType": "address",
          "name": "to",
          "type": "address"
        },
        {
          "internalType": "uint256",
          "name": "tokenId",
          "type": "uint256"
        },
        {
          "internalType": "bytes",
          "name": "data",
          "type": "bytes"
        }
      ],
      "name": "safeTransferFrom",
      "outputs": [],
      "stateMutability": "nonpayable",
      "type": "function"
    },
    {
      "inputs": [
        {
          "internalType": "address",
          "name": "operator",
          "type": "address"
        },
        {
          "internalType": "bool",
          "name": "approved",
          "type": "bool"
        }
      ],
      "name": "setApprovalForAll",
      "outputs": [],
      "stateMutability": "nonpayable",
      "type": "function"
    },
    {
      "inputs": [
        {
          "internalType": "bytes4",
          "name": "interfaceId",
          "type": "bytes4"
        }
      ],
      "name": "supportsInterface",
      "outputs": [
        {
          "internalType": "bool",
          "name": "",
          "type": "bool"
        }
      ],
      "stateMutability": "view",
      "type": "function"
    },
    {
      "inputs": [],
      "name": "symbol",
      "outputs": [
        {
          "internalType": "string",
          "name": "",
          "type": "string"
        }
      ],
      "stateMutability": "view",
      "type": "function"
    },
    {
      "inputs": [],
      "name": "tokenIdCounter",
      "outputs": [
        {
          "internalType": "uint256",
          "name": "",
          "type": "uint256"
        }
      ],
      "stateMutability": "view",
      "type": "function"
    },
    {
      "inputs": [
        {
          "internalType": "uint256",
          "name": "tokenId",
          "type": "uint256"
        }
      ],
      "name": "tokenURI",
      "outputs": [
        {
          "internalType": "string",
          "name": "",
          "type": "string"
        }
      ],
      "stateMutability": "view",
      "type": "function"
    },
    {
      "inputs": [
        {
          "internalType": "address",
          "name": "from",
          "type": "address"
        },
        {
          "internalType": "address",
          "name": "to",
          "type": "address"
        },
        {
          "internalType": "uint256",
          "name": "tokenId",
          "type": "uint256"
        }
      ],
      "name": "transferFrom",
      "outputs": [],
      "stateMutability": "nonpayable",
      "type": "function"
    },
    {
      "inputs": [
        {
          "internalType": "uint256",
          "name": "projectId",
          "type": "uint256"
        },
        {
          "internalType": "uint256",
          "name": "milestoneIndex",
          "type": "uint256"
        }
      ],
      "name": "transferFunds",
      "outputs": [],
      "stateMutability": "nonpayable",
      "type": "function"
    },
    {
      "inputs": [
        {
          "internalType": "address",
          "name": "newOwner",
          "type": "address"
        }
      ],
      "name": "transferOwnership",
      "outputs": [],
      "stateMutability": "nonpayable",
      "type": "function"
    },
    {
      "inputs": [
        {
          "internalType": "uint256",
          "name": "projectId",
          "type": "uint256"
        }
      ],
      "name": "withdraw",
      "outputs": [],
      "stateMutability": "nonpayable",
      "type": "function"
    }
  ],
  "bytecode": "0x60806040523480156200001157600080fd5b506040516200435f3803806200435f833981810160405281019062000037919062000288565b806040518060400160405280600a81526020017f46696e766573744e4654000000000000000000000000000000000000000000008152506040518060400160405280600481526020017f464e4654000000000000000000000000000000000000000000000000000000008152508160009081620000b5919062000534565b508060019081620000c7919062000534565b505050600073ffffffffffffffffffffffffffffffffffffffff168173ffffffffffffffffffffffffffffffffffffffff16036200013f5760006040517f1e4fbdf70000000000000000000000000000000000000000000000000000000081526004016200013691906200062c565b60405180910390fd5b62000150816200015860201b60201c565b505062000649565b6000600660009054906101000a900473ffffffffffffffffffffffffffffffffffffffff16905081600660006101000a81548173ffffffffffffffffffffffffffffffffffffffff021916908373ffffffffffffffffffffffffffffffffffffffff1602179055508173ffffffffffffffffffffffffffffffffffffffff168173ffffffffffffffffffffffffffffffffffffffff167f8be0079c531659141344cd1fd0a4f28419497f9722a3daafe3b4186f6b6457e060405160405180910390a35050565b600080fd5b600073ffffffffffffffffffffffffffffffffffffffff82169050919050565b6000620002508262000223565b9050919050565b620002628162000243565b81146200026e57600080fd5b50565b600081519050620002828162000257565b92915050565b600060208284031215620002a157620002a06200021e565b5b6000620002b18482850162000271565b91505092915050565b600081519050919050565b7f4e487b7100000000000000000000000000000000000000000000000000000000600052604160045260246000fd5b7f4e487b7100000000000000000000000000000000000000000000000000000000600052602260045260246000fd5b600060028204905060018216806200033c57607f821691505b602082108103620003525762000351620002f4565b5b50919050565b60008190508160005260206000209050919050565b60006020601f8301049050919050565b600082821b905092915050565b600060088302620003bc7fffffffffffffffffffffffffffffffffffffffffffffffffffffffffffffffff826200037d565b620003c886836200037d565b95508019841693508086168417925050509392505050565b6000819050919050565b6000819050919050565b6000620004156200040f6200040984620003e0565b620003ea565b620003e0565b9050919050565b6000819050919050565b6200043183620003f4565b6200044962000440826200041c565b8484546200038a565b825550505050565b600090565b6200046062000451565b6200046d81848462000426565b505050565b5b8181101562000495576200048960008262000456565b60018101905062000473565b5050565b601f821115620004e457620004ae8162000358565b620004b9846200036d565b81016020851015620004c9578190505b620004e1620004d8856200036d565b83018262000472565b50505b505050565b600082821c905092915050565b60006200050960001984600802620004e9565b1980831691505092915050565b6000620005248383620004f6565b9150826002028217905092915050565b6200053f82620002ba565b67ffffffffffffffff8111156200055b576200055a620002c5565b5b62000567825462000323565b6200057482828562000499565b600060209050601f831160018114620005ac576000841562000597578287015190505b620005a3858262000516565b86555062000613565b601f198416620005bc8662000358565b60005b82811015620005e657848901518255600182019150602085019450602081019050620005bf565b8683101562000606578489015162000602601f891682620004f6565b8355505b6001600288020188555050505b505050505050565b620006268162000243565b82525050565b60006020820190506200064360008301846200061b565b92915050565b613d0680620006596000396000f3fe6080604052600436106101c25760003560e01c8063715018a6116100f7578063b88d4fde11610095578063e081dbf911610064578063e081dbf914610680578063e985e9c5146106bd578063f0f3f2c8146106fa578063f2fde38b1461073a576101c2565b8063b88d4fde146105d5578063c1cbbca7146105fe578063c7f9fc671461061a578063c87b56dd14610643576101c2565b80638ed9895c116100d15780638ed9895c1461051657806395d89b411461055657806398bdf6f514610581578063a22cb465146105ac576101c2565b8063715018a614610497578063785f8ee3146104ae5780638da5cb5b146104eb576101c2565b80632e1a7d4d1161016457806342842e0e1161013e57806342842e0e146103cb5780635dfa5c14146103f45780636352211e1461041d57806370a082311461045a576101c2565b80632e1a7d4d1461033a57806336fbad26146103635780633c1ab00f1461038e576101c2565b8063095ea7b3116101a0578063095ea7b31461026c578063107046bd1461029557806319c5f695146102d457806323b872dd14610311576101c2565b806301ffc9a7146101c757806306fdde0314610204578063081812fc1461022f575b600080fd5b3480156101d357600080fd5b506101ee60048036038101906101e9919061285e565b610763565b6040516101fb91906128a6565b60405180910390f35b34801561021057600080fd5b50610219610845565b6040516102269190612951565b60405180910390f35b34801561023b57600080fd5b50610256600480360381019061025191906129a9565b6108d7565b6040516102639190612a17565b60405180910390f35b34801561027857600080fd5b50610293600480360381019061028e9190612a5e565b6108f3565b005b3480156102a157600080fd5b506102bc60048036038101906102b791906129a9565b610909565b6040516102cb93929190612aad565b60405180910390f35b3480156102e057600080fd5b506102fb60048036038101906102f691906129a9565b610940565b6040516103089190612ae4565b60405180910390f35b34801561031d57600080fd5b5061033860048036038101906103339190612aff565b610963565b005b34801561034657600080fd5b50610361600480360381019061035c91906129a9565b610a65565b005b34801561036f57600080fd5b50610378610c5d565b6040516103859190612ae4565b60405180910390f35b34801561039a57600080fd5b506103b560048036038101906103b091906129a9565b610c63565b6040516103c29190612c10565b60405180910390f35b3480156103d757600080fd5b506103f260048036038101906103ed9190612aff565b610d07565b005b34801561040057600080fd5b5061041b60048036038101906104169190612f55565b610d27565b005b34801561042957600080fd5b50610444600480360381019061043f91906129a9565b610f36565b6040516104519190612a17565b60405180910390f35b34801561046657600080fd5b50610481600480360381019061047c9190612fb1565b610f48565b60405161048e9190612ae4565b60405180910390f35b3480156104a357600080fd5b506104ac611002565b005b3480156104ba57600080fd5b506104d560048036038101906104d09190612fb1565b611016565b6040516104e291906128a6565b60405180910390f35b3480156104f757600080fd5b5061050061102a565b60405161050d9190612a17565b60405180910390f35b34801561052257600080fd5b5061053d60048036038101906105389190612fde565b611054565b60405161054d949392919061301e565b60405180910390f35b34801561056257600080fd5b5061056b611178565b6040516105789190612951565b60405180910390f35b34801561058d57600080fd5b5061059661120a565b6040516105a39190612ae4565b60405180910390f35b3480156105b857600080fd5b506105d360048036038101906105ce919061306a565b611210565b005b3480156105e157600080fd5b506105fc60048036038101906105f7919061314b565b611226565b005b610618600480360381019061061391906129a9565b611243565b005b34801561062657600080fd5b50610641600480360381019061063c9190612fde565b6114b1565b005b34801561064f57600080fd5b5061066a600480360381019061066591906129a9565b611732565b6040516106779190612951565b60405180910390f35b34801561068c57600080fd5b506106a760048036038101906106a291906131ce565b61179b565b6040516106b49190612ae4565b60405180910390f35b3480156106c957600080fd5b506106e460048036038101906106df919061320e565b6117f9565b6040516106f191906128a6565b60405180910390f35b34801561070657600080fd5b50610721600480360381019061071c91906129a9565b61188d565b604051610731949392919061324e565b60405180910390f35b34801561074657600080fd5b50610761600480360381019061075c9190612fb1565b6118de565b005b60007f80ac58cd000000000000000000000000000000000000000000000000000000007bffffffffffffffffffffffffffffffffffffffffffffffffffffffff1916827bffffffffffffffffffffffffffffffffffffffffffffffffffffffff1916148061082e57507f5b5e139f000000000000000000000000000000000000000000000000000000007bffffffffffffffffffffffffffffffffffffffffffffffffffffffff1916827bffffffffffffffffffffffffffffffffffffffffffffffffffffffff1916145b8061083e575061083d82611964565b5b9050919050565b606060008054610854906132c2565b80601f0160208091040260200160405190810160405280929190818152602001828054610880906132c2565b80156108cd5780601f106108a2576101008083540402835291602001916108cd565b820191906000526020600020905b8154815290600101906020018083116108b057829003601f168201915b5050505050905090565b60006108e2826119ce565b506108ec82611a56565b9050919050565b6109058282610900611a93565b611a9b565b5050565b60086020528060005260406000206000915090508060000154908060010154908060020160009054906101000a900460ff16905083565b600060086000838152602001908152602001600020600501805490509050919050565b600073ffffffffffffffffffffffffffffffffffffffff168273ffffffffffffffffffffffffffffffffffffffff16036109d55760006040517f64a0ae920000000000000000000000000000000000000000000000000000000081526004016109cc9190612a17565b60405180910390fd5b60006109e983836109e4611a93565b611aad565b90508373ffffffffffffffffffffffffffffffffffffffff168173ffffffffffffffffffffffffffffffffffffffff1614610a5f578382826040517f64283d7b000000000000000000000000000000000000000000000000000000008152600401610a56939291906132f3565b60405180910390fd5b50505050565b60006008600083815260200190815260200160002090508060020160009054906101000a900460ff16610acd576040517f08c379a0000000000000000000000000000000000000000000000000000000008152600401610ac490613376565b60405180910390fd5b60008160040160003373ffffffffffffffffffffffffffffffffffffffff1673ffffffffffffffffffffffffffffffffffffffff16815260200190815260200160002054905060008111610b56576040517f08c379a0000000000000000000000000000000000000000000000000000000008152600401610b4d906133e2565b60405180910390fd5b60006064605a83610b679190613431565b610b7191906134a2565b905081836001016000828254610b8791906134d3565b9250508190555060008360040160003373ffffffffffffffffffffffffffffffffffffffff1673ffffffffffffffffffffffffffffffffffffffff168152602001908152602001600020819055503373ffffffffffffffffffffffffffffffffffffffff166108fc829081150290604051600060405180830381858888f19350505050158015610c1b573d6000803e3d6000fd5b507fc81be14279d47c3277e33e7f25220796e83497d2b34f16612a9fa70d565ffc35843383604051610c4f93929190613507565b60405180910390a150505050565b60075481565b606060086000838152602001908152602001600020600501805480602002602001604051908101604052809291908181526020018280548015610cfb57602002820191906000526020600020905b8160009054906101000a900473ffffffffffffffffffffffffffffffffffffffff1673ffffffffffffffffffffffffffffffffffffffff1681526020019060010190808311610cb1575b50505050509050919050565b610d2283838360405180602001604052806000815250611226565b505050565b610d2f611cc7565b60008211610d72576040517f08c379a0000000000000000000000000000000000000000000000000000000008152600401610d69906135b0565b60405180910390fd5b6000815111610db6576040517f08c379a0000000000000000000000000000000000000000000000000000000008152600401610dad9061361c565b60405180910390fd5b6000600860006007548152602001908152602001600020905082816000018190555060018160020160006101000a81548160ff02191690831515021790555060005b8251811015610edf5781600301838281518110610e1857610e1761363c565b5b602002602001015190806001815401808255809150506001900390600052602060002090600302016000909190919091506000820151816000019081610e5e9190613817565b506020820151816001015560408201518160020160006101000a81548173ffffffffffffffffffffffffffffffffffffffff021916908373ffffffffffffffffffffffffffffffffffffffff16021790555060608201518160020160146101000a81548160ff02191690831515021790555050508080600101915050610df8565b507f1ac2092e16e28eef29d1832f3dc69da1b21284a1f3159d3b26cb238b22fe4f8a600754604051610f119190612ae4565b60405180910390a160076000815480929190610f2c906138e9565b9190505550505050565b6000610f41826119ce565b9050919050565b60008073ffffffffffffffffffffffffffffffffffffffff168273ffffffffffffffffffffffffffffffffffffffff1603610fbb5760006040517f89c62b64000000000000000000000000000000000000000000000000000000008152600401610fb29190612a17565b60405180910390fd5b600360008373ffffffffffffffffffffffffffffffffffffffff1673ffffffffffffffffffffffffffffffffffffffff168152602001908152602001600020549050919050565b61100a611cc7565b6110146000611d4e565b565b60008061102283610f48565b119050919050565b6000600660009054906101000a900473ffffffffffffffffffffffffffffffffffffffff16905090565b606060008060008060086000888152602001908152602001600020905060008160030187815481106110895761108861363c565b5b906000526020600020906003020190508060000181600101548260020160009054906101000a900473ffffffffffffffffffffffffffffffffffffffff168360020160149054906101000a900460ff168380546110e5906132c2565b80601f0160208091040260200160405190810160405280929190818152602001828054611111906132c2565b801561115e5780601f106111335761010080835404028352916020019161115e565b820191906000526020600020905b81548152906001019060200180831161114157829003601f168201915b505050505093509550955095509550505092959194509250565b606060018054611187906132c2565b80601f01602080910402602001604051908101604052809291908181526020018280546111b3906132c2565b80156112005780601f106111d557610100808354040283529160200191611200565b820191906000526020600020905b8154815290600101906020018083116111e357829003601f168201915b5050505050905090565b60095481565b61122261121b611a93565b8383611e14565b5050565b611231848484610963565b61123d84848484611f83565b50505050565b60003411611286576040517f08c379a000000000000000000000000000000000000000000000000000000000815260040161127d906139a3565b60405180910390fd5b60006008600083815260200190815260200160002090508060020160009054906101000a900460ff166112ee576040517f08c379a00000000000000000000000000000000000000000000000000000000081526004016112e590613376565b60405180910390fd5b3481600101600082825461130291906139c3565b92505081905550348160040160003373ffffffffffffffffffffffffffffffffffffffff1673ffffffffffffffffffffffffffffffffffffffff168152602001908152602001600020600082825461135a91906139c3565b92505081905550348160040160003373ffffffffffffffffffffffffffffffffffffffff1673ffffffffffffffffffffffffffffffffffffffff168152602001908152602001600020540361140f5780600501339080600181540180825580915050600190039060005260206000200160009091909190916101000a81548173ffffffffffffffffffffffffffffffffffffffff021916908373ffffffffffffffffffffffffffffffffffffffff1602179055505b60006009549050611420338261213a565b60096000815480929190611433906138e9565b91905055507f0a4a91237423e0a1766a761c7cb029311d8b95d6b1b81db1b949a70c98b4e08e83333460405161146b93929190613507565b60405180910390a17f4cc0a9c4a99ddc700de1af2c9f916a7cbfdb71f14801ccff94061ad1ef8a804033826040516114a49291906139f7565b60405180910390a1505050565b6114b9611cc7565b60006008600084815260200190815260200160002090508060020160009054906101000a900460ff16611521576040517f08c379a000000000000000000000000000000000000000000000000000000000815260040161151890613376565b60405180910390fd5b8060030180549050821061156a576040517f08c379a000000000000000000000000000000000000000000000000000000000815260040161156190613a6c565b60405180910390fd5b60008160030183815481106115825761158161363c565b5b906000526020600020906003020190508060020160149054906101000a900460ff16156115e4576040517f08c379a00000000000000000000000000000000000000000000000000000000081526004016115db90613ad8565b60405180910390fd5b80600101548260010154101561162f576040517f08c379a000000000000000000000000000000000000000000000000000000000815260040161162690613b44565b60405180910390fd5b8060020160009054906101000a900473ffffffffffffffffffffffffffffffffffffffff1673ffffffffffffffffffffffffffffffffffffffff166108fc82600101549081150290604051600060405180830381858888f1935050505015801561169d573d6000803e3d6000fd5b5060018160020160146101000a81548160ff0219169083151502179055507f5c1cc83fbc8e7a522bf0644cacfec8391f6ab9a547c34594a325a9873325481584846040516116ec929190613b64565b60405180910390a16001826003018054905061170891906134d3565b830361172c5760008260020160006101000a81548160ff0219169083151502179055505b50505050565b606061173d826119ce565b506000611748612233565b905060008151116117685760405180602001604052806000815250611793565b806117728461224a565b604051602001611783929190613bc9565b6040516020818303038152906040525b915050919050565b60006008600084815260200190815260200160002060040160008373ffffffffffffffffffffffffffffffffffffffff1673ffffffffffffffffffffffffffffffffffffffff16815260200190815260200160002054905092915050565b6000600560008473ffffffffffffffffffffffffffffffffffffffff1673ffffffffffffffffffffffffffffffffffffffff16815260200190815260200160002060008373ffffffffffffffffffffffffffffffffffffffff1673ffffffffffffffffffffffffffffffffffffffff16815260200190815260200160002060009054906101000a900460ff16905092915050565b6000806000806000600860008781526020019081526020016000209050806000015481600101548260020160009054906101000a900460ff1683600301805490509450945094509450509193509193565b6118e6611cc7565b600073ffffffffffffffffffffffffffffffffffffffff168173ffffffffffffffffffffffffffffffffffffffff16036119585760006040517f1e4fbdf700000000000000000000000000000000000000000000000000000000815260040161194f9190612a17565b60405180910390fd5b61196181611d4e565b50565b60007f01ffc9a7000000000000000000000000000000000000000000000000000000007bffffffffffffffffffffffffffffffffffffffffffffffffffffffff1916827bffffffffffffffffffffffffffffffffffffffffffffffffffffffff1916149050919050565b6000806119da83612318565b9050600073ffffffffffffffffffffffffffffffffffffffff168173ffffffffffffffffffffffffffffffffffffffff1603611a4d57826040517f7e273289000000000000000000000000000000000000000000000000000000008152600401611a449190612ae4565b60405180910390fd5b80915050919050565b60006004600083815260200190815260200160002060009054906101000a900473ffffffffffffffffffffffffffffffffffffffff169050919050565b600033905090565b611aa88383836001612355565b505050565b600080611ab984612318565b9050600073ffffffffffffffffffffffffffffffffffffffff168373ffffffffffffffffffffffffffffffffffffffff1614611afb57611afa81848661251a565b5b600073ffffffffffffffffffffffffffffffffffffffff168173ffffffffffffffffffffffffffffffffffffffff1614611b8c57611b3d600085600080612355565b6001600360008373ffffffffffffffffffffffffffffffffffffffff1673ffffffffffffffffffffffffffffffffffffffff168152602001908152602001600020600082825403925050819055505b600073ffffffffffffffffffffffffffffffffffffffff168573ffffffffffffffffffffffffffffffffffffffff1614611c0f576001600360008773ffffffffffffffffffffffffffffffffffffffff1673ffffffffffffffffffffffffffffffffffffffff168152602001908152602001600020600082825401925050819055505b846002600086815260200190815260200160002060006101000a81548173ffffffffffffffffffffffffffffffffffffffff021916908373ffffffffffffffffffffffffffffffffffffffff160217905550838573ffffffffffffffffffffffffffffffffffffffff168273ffffffffffffffffffffffffffffffffffffffff167fddf252ad1be2c89b69c2b068fc378daa952ba7f163c4a11628f55a4df523b3ef60405160405180910390a4809150509392505050565b611ccf611a93565b73ffffffffffffffffffffffffffffffffffffffff16611ced61102a565b73ffffffffffffffffffffffffffffffffffffffff1614611d4c57611d10611a93565b6040517f118cdaa7000000000000000000000000000000000000000000000000000000008152600401611d439190612a17565b60405180910390fd5b565b6000600660009054906101000a900473ffffffffffffffffffffffffffffffffffffffff16905081600660006101000a81548173ffffffffffffffffffffffffffffffffffffffff021916908373ffffffffffffffffffffffffffffffffffffffff1602179055508173ffffffffffffffffffffffffffffffffffffffff168173ffffffffffffffffffffffffffffffffffffffff167f8be0079c531659141344cd1fd0a4f28419497f9722a3daafe3b4186f6b6457e060405160405180910390a35050565b600073ffffffffffffffffffffffffffffffffffffffff168273ffffffffffffffffffffffffffffffffffffffff1603611e8557816040517f5b08ba18000000000000000000000000000000000000000000000000000000008152600401611e7c9190612a17565b60405180910390fd5b80600560008573ffffffffffffffffffffffffffffffffffffffff1673ffffffffffffffffffffffffffffffffffffffff16815260200190815260200160002060008473ffffffffffffffffffffffffffffffffffffffff1673ffffffffffffffffffffffffffffffffffffffff16815260200190815260200160002060006101000a81548160ff0219169083151502179055508173ffffffffffffffffffffffffffffffffffffffff168373ffffffffffffffffffffffffffffffffffffffff167f17307eab39ab6107e8899845ad3d59bd9653f200f220920489ca2b5937696c3183604051611f7691906128a6565b60405180910390a3505050565b60008373ffffffffffffffffffffffffffffffffffffffff163b1115612134578273ffffffffffffffffffffffffffffffffffffffff1663150b7a02611fc7611a93565b8685856040518563ffffffff1660e01b8152600401611fe99493929190613c42565b6020604051808303816000875af192505050801561202557506040513d601f19601f820116820180604052508101906120229190613ca3565b60015b6120a9573d8060008114612055576040519150601f19603f3d011682016040523d82523d6000602084013e61205a565b606091505b5060008151036120a157836040517f64a0ae920000000000000000000000000000000000000000000000000000000081526004016120989190612a17565b60405180910390fd5b805181602001fd5b63150b7a0260e01b7bffffffffffffffffffffffffffffffffffffffffffffffffffffffff1916817bffffffffffffffffffffffffffffffffffffffffffffffffffffffff19161461213257836040517f64a0ae920000000000000000000000000000000000000000000000000000000081526004016121299190612a17565b60405180910390fd5b505b50505050565b600073ffffffffffffffffffffffffffffffffffffffff168273ffffffffffffffffffffffffffffffffffffffff16036121ac5760006040517f64a0ae920000000000000000000000000000000000000000000000000000000081526004016121a39190612a17565b60405180910390fd5b60006121ba83836000611aad565b9050600073ffffffffffffffffffffffffffffffffffffffff168173ffffffffffffffffffffffffffffffffffffffff161461222e5760006040517f73c6ac6e0000000000000000000000000000000000000000000000000000000081526004016122259190612a17565b60405180910390fd5b505050565b606060405180602001604052806000815250905090565b606060006001612259846125de565b01905060008167ffffffffffffffff81111561227857612277612c37565b5b6040519080825280601f01601f1916602001820160405280156122aa5781602001600182028036833780820191505090505b509050600082602001820190505b60011561230d578080600190039150507f3031323334353637383961626364656600000000000000000000000000000000600a86061a8153600a858161230157612300613473565b5b049450600085036122b8575b819350505050919050565b60006002600083815260200190815260200160002060009054906101000a900473ffffffffffffffffffffffffffffffffffffffff169050919050565b808061238e5750600073ffffffffffffffffffffffffffffffffffffffff168273ffffffffffffffffffffffffffffffffffffffff1614155b156124c257600061239e846119ce565b9050600073ffffffffffffffffffffffffffffffffffffffff168373ffffffffffffffffffffffffffffffffffffffff161415801561240957508273ffffffffffffffffffffffffffffffffffffffff168173ffffffffffffffffffffffffffffffffffffffff1614155b801561241c575061241a81846117f9565b155b1561245e57826040517fa9fbf51f0000000000000000000000000000000000000000000000000000000081526004016124559190612a17565b60405180910390fd5b81156124c057838573ffffffffffffffffffffffffffffffffffffffff168273ffffffffffffffffffffffffffffffffffffffff167f8c5be1e5ebec7d5bd14f71427d1e84f3dd0314c0f7b2291e5b200ac8c7c3b92560405160405180910390a45b505b836004600085815260200190815260200160002060006101000a81548173ffffffffffffffffffffffffffffffffffffffff021916908373ffffffffffffffffffffffffffffffffffffffff16021790555050505050565b612525838383612731565b6125d957600073ffffffffffffffffffffffffffffffffffffffff168373ffffffffffffffffffffffffffffffffffffffff160361259a57806040517f7e2732890000000000000000000000000000000000000000000000000000000081526004016125919190612ae4565b60405180910390fd5b81816040517f177e802f0000000000000000000000000000000000000000000000000000000081526004016125d09291906139f7565b60405180910390fd5b505050565b600080600090507a184f03e93ff9f4daa797ed6e38ed64bf6a1f010000000000000000831061263c577a184f03e93ff9f4daa797ed6e38ed64bf6a1f010000000000000000838161263257612631613473565b5b0492506040810190505b6d04ee2d6d415b85acef81000000008310612679576d04ee2d6d415b85acef8100000000838161266f5761266e613473565b5b0492506020810190505b662386f26fc1000083106126a857662386f26fc10000838161269e5761269d613473565b5b0492506010810190505b6305f5e10083106126d1576305f5e10083816126c7576126c6613473565b5b0492506008810190505b61271083106126f65761271083816126ec576126eb613473565b5b0492506004810190505b60648310612719576064838161270f5761270e613473565b5b0492506002810190505b600a8310612728576001810190505b80915050919050565b60008073ffffffffffffffffffffffffffffffffffffffff168373ffffffffffffffffffffffffffffffffffffffff16141580156127e957508273ffffffffffffffffffffffffffffffffffffffff168473ffffffffffffffffffffffffffffffffffffffff1614806127aa57506127a984846117f9565b5b806127e857508273ffffffffffffffffffffffffffffffffffffffff166127d083611a56565b73ffffffffffffffffffffffffffffffffffffffff16145b5b90509392505050565b6000604051905090565b600080fd5b600080fd5b60007fffffffff0000000000000000000000000000000000000000000000000000000082169050919050565b61283b81612806565b811461284657600080fd5b50565b60008135905061285881612832565b92915050565b600060208284031215612874576128736127fc565b5b600061288284828501612849565b91505092915050565b60008115159050919050565b6128a08161288b565b82525050565b60006020820190506128bb6000830184612897565b92915050565b600081519050919050565b600082825260208201905092915050565b60005b838110156128fb5780820151818401526020810190506128e0565b60008484015250505050565b6000601f19601f8301169050919050565b6000612923826128c1565b61292d81856128cc565b935061293d8185602086016128dd565b61294681612907565b840191505092915050565b6000602082019050818103600083015261296b8184612918565b905092915050565b6000819050919050565b61298681612973565b811461299157600080fd5b50565b6000813590506129a38161297d565b92915050565b6000602082840312156129bf576129be6127fc565b5b60006129cd84828501612994565b91505092915050565b600073ffffffffffffffffffffffffffffffffffffffff82169050919050565b6000612a01826129d6565b9050919050565b612a11816129f6565b82525050565b6000602082019050612a2c6000830184612a08565b92915050565b612a3b816129f6565b8114612a4657600080fd5b50565b600081359050612a5881612a32565b92915050565b60008060408385031215612a7557612a746127fc565b5b6000612a8385828601612a49565b9250506020612a9485828601612994565b9150509250929050565b612aa781612973565b82525050565b6000606082019050612ac26000830186612a9e565b612acf6020830185612a9e565b612adc6040830184612897565b949350505050565b6000602082019050612af96000830184612a9e565b92915050565b600080600060608486031215612b1857612b176127fc565b5b6000612b2686828701612a49565b9350506020612b3786828701612a49565b9250506040612b4886828701612994565b9150509250925092565b600081519050919050565b600082825260208201905092915050565b6000819050602082019050919050565b612b87816129f6565b82525050565b6000612b998383612b7e565b60208301905092915050565b6000602082019050919050565b6000612bbd82612b52565b612bc78185612b5d565b9350612bd283612b6e565b8060005b83811015612c03578151612bea8882612b8d565b9750612bf583612ba5565b925050600181019050612bd6565b5085935050505092915050565b60006020820190508181036000830152612c2a8184612bb2565b905092915050565b600080fd5b7f4e487b7100000000000000000000000000000000000000000000000000000000600052604160045260246000fd5b612c6f82612907565b810181811067ffffffffffffffff82111715612c8e57612c8d612c37565b5b80604052505050565b6000612ca16127f2565b9050612cad8282612c66565b919050565b600067ffffffffffffffff821115612ccd57612ccc612c37565b5b602082029050602081019050919050565b600080fd5b600080fd5b600080fd5b600080fd5b600067ffffffffffffffff821115612d0d57612d0c612c37565b5b612d1682612907565b9050602081019050919050565b82818337600083830152505050565b6000612d45612d4084612cf2565b612c97565b905082815260208101848484011115612d6157612d60612ced565b5b612d6c848285612d23565b509392505050565b600082601f830112612d8957612d88612c32565b5b8135612d99848260208601612d32565b91505092915050565b6000612dad826129d6565b9050919050565b612dbd81612da2565b8114612dc857600080fd5b50565b600081359050612dda81612db4565b92915050565b612de98161288b565b8114612df457600080fd5b50565b600081359050612e0681612de0565b92915050565b600060808284031215612e2257612e21612ce3565b5b612e2c6080612c97565b9050600082013567ffffffffffffffff811115612e4c57612e4b612ce8565b5b612e5884828501612d74565b6000830152506020612e6c84828501612994565b6020830152506040612e8084828501612dcb565b6040830152506060612e9484828501612df7565b60608301525092915050565b6000612eb3612eae84612cb2565b612c97565b90508083825260208201905060208402830185811115612ed657612ed5612cde565b5b835b81811015612f1d57803567ffffffffffffffff811115612efb57612efa612c32565b5b808601612f088982612e0c565b85526020850194505050602081019050612ed8565b5050509392505050565b600082601f830112612f3c57612f3b612c32565b5b8135612f4c848260208601612ea0565b91505092915050565b60008060408385031215612f6c57612f6b6127fc565b5b6000612f7a85828601612994565b925050602083013567ffffffffffffffff811115612f9b57612f9a612801565b5b612fa785828601612f27565b9150509250929050565b600060208284031215612fc757612fc66127fc565b5b6000612fd584828501612a49565b91505092915050565b60008060408385031215612ff557612ff46127fc565b5b600061300385828601612994565b925050602061301485828601612994565b9150509250929050565b600060808201905081810360008301526130388187612918565b90506130476020830186612a9e565b6130546040830185612a08565b6130616060830184612897565b95945050505050565b60008060408385031215613081576130806127fc565b5b600061308f85828601612a49565b92505060206130a085828601612df7565b9150509250929050565b600067ffffffffffffffff8211156130c5576130c4612c37565b5b6130ce82612907565b9050602081019050919050565b60006130ee6130e9846130aa565b612c97565b90508281526020810184848401111561310a57613109612ced565b5b613115848285612d23565b509392505050565b600082601f83011261313257613131612c32565b5b81356131428482602086016130db565b91505092915050565b60008060008060808587031215613165576131646127fc565b5b600061317387828801612a49565b945050602061318487828801612a49565b935050604061319587828801612994565b925050606085013567ffffffffffffffff8111156131b6576131b5612801565b5b6131c28782880161311d565b91505092959194509250565b600080604083850312156131e5576131e46127fc565b5b60006131f385828601612994565b925050602061320485828601612a49565b9150509250929050565b60008060408385031215613225576132246127fc565b5b600061323385828601612a49565b925050602061324485828601612a49565b9150509250929050565b60006080820190506132636000830187612a9e565b6132706020830186612a9e565b61327d6040830185612897565b61328a6060830184612a9e565b95945050505050565b7f4e487b7100000000000000000000000000000000000000000000000000000000600052602260045260246000fd5b600060028204905060018216806132da57607f821691505b6020821081036132ed576132ec613293565b5b50919050565b60006060820190506133086000830186612a08565b6133156020830185612a9e565b6133226040830184612a08565b949350505050565b7f50726f6a656374206973206e6f74206163746976650000000000000000000000600082015250565b60006133606015836128cc565b915061336b8261332a565b602082019050919050565b6000602082019050818103600083015261338f81613353565b9050919050565b7f4e6f20636f6e747269627574696f6e20746f2077697468647261770000000000600082015250565b60006133cc601b836128cc565b91506133d782613396565b602082019050919050565b600060208201905081810360008301526133fb816133bf565b9050919050565b7f4e487b7100000000000000000000000000000000000000000000000000000000600052601160045260246000fd5b600061343c82612973565b915061344783612973565b925082820261345581612973565b9150828204841483151761346c5761346b613402565b5b5092915050565b7f4e487b7100000000000000000000000000000000000000000000000000000000600052601260045260246000fd5b60006134ad82612973565b91506134b883612973565b9250826134c8576134c7613473565b5b828204905092915050565b60006134de82612973565b91506134e983612973565b925082820390508181111561350157613500613402565b5b92915050565b600060608201905061351c6000830186612a9e565b6135296020830185612a08565b6135366040830184612a9e565b949350505050565b7f546f74616c20616d6f756e74206d75737420626520677265617465722074686160008201527f6e207a65726f0000000000000000000000000000000000000000000000000000602082015250565b600061359a6026836128cc565b91506135a58261353e565b604082019050919050565b600060208201905081810360008301526135c98161358d565b9050919050565b7f4174206c65617374206f6e65206d696c6573746f6e6520726571756972656400600082015250565b6000613606601f836128cc565b9150613611826135d0565b602082019050919050565b60006020820190508181036000830152613635816135f9565b9050919050565b7f4e487b7100000000000000000000000000000000000000000000000000000000600052603260045260246000fd5b60008190508160005260206000209050919050565b60006020601f8301049050919050565b600082821b905092915050565b6000600883026136cd7fffffffffffffffffffffffffffffffffffffffffffffffffffffffffffffffff82613690565b6136d78683613690565b95508019841693508086168417925050509392505050565b6000819050919050565b600061371461370f61370a84612973565b6136ef565b612973565b9050919050565b6000819050919050565b61372e836136f9565b61374261373a8261371b565b84845461369d565b825550505050565b600090565b61375761374a565b613762818484613725565b505050565b5b818110156137865761377b60008261374f565b600181019050613768565b5050565b601f8211156137cb5761379c8161366b565b6137a584613680565b810160208510156137b4578190505b6137c86137c085613680565b830182613767565b50505b505050565b600082821c905092915050565b60006137ee600019846008026137d0565b1980831691505092915050565b600061380783836137dd565b9150826002028217905092915050565b613820826128c1565b67ffffffffffffffff81111561383957613838612c37565b5b61384382546132c2565b61384e82828561378a565b600060209050601f831160018114613881576000841561386f578287015190505b61387985826137fb565b8655506138e1565b601f19841661388f8661366b565b60005b828110156138b757848901518255600182019150602085019450602081019050613892565b868310156138d457848901516138d0601f8916826137dd565b8355505b6001600288020188555050505b505050505050565b60006138f482612973565b91507fffffffffffffffffffffffffffffffffffffffffffffffffffffffffffffffff820361392657613925613402565b5b600182019050919050565b7f436f6e747269627574696f6e206d75737420626520677265617465722074686160008201527f6e207a65726f0000000000000000000000000000000000000000000000000000602082015250565b600061398d6026836128cc565b915061399882613931565b604082019050919050565b600060208201905081810360008301526139bc81613980565b9050919050565b60006139ce82612973565b91506139d983612973565b92508282019050808211156139f1576139f0613402565b5b92915050565b6000604082019050613a0c6000830185612a08565b613a196020830184612a9e565b9392505050565b7f496e76616c6964206d696c6573746f6e6520696e646578000000000000000000600082015250565b6000613a566017836128cc565b9150613a6182613a20565b602082019050919050565b60006020820190508181036000830152613a8581613a49565b9050919050565b7f4d696c6573746f6e6520616c726561647920636f6d706c657465640000000000600082015250565b6000613ac2601b836128cc565b9150613acd82613a8c565b602082019050919050565b60006020820190508181036000830152613af181613ab5565b9050919050565b7f496e73756666696369656e742066756e647320666f72206d696c6573746f6e65600082015250565b6000613b2e6020836128cc565b9150613b3982613af8565b602082019050919050565b60006020820190508181036000830152613b5d81613b21565b9050919050565b6000604082019050613b796000830185612a9e565b613b866020830184612a9e565b9392505050565b600081905092915050565b6000613ba3826128c1565b613bad8185613b8d565b9350613bbd8185602086016128dd565b80840191505092915050565b6000613bd58285613b98565b9150613be18284613b98565b91508190509392505050565b600081519050919050565b600082825260208201905092915050565b6000613c1482613bed565b613c1e8185613bf8565b9350613c2e8185602086016128dd565b613c3781612907565b840191505092915050565b6000608082019050613c576000830187612a08565b613c646020830186612a08565b613c716040830185612a9e565b8181036060830152613c838184613c09565b905095945050505050565b600081519050613c9d81612832565b92915050565b600060208284031215613cb957613cb86127fc565b5b6000613cc784828501613c8e565b9150509291505056fea2646970667358221220b6c74f238fee35f048284573ecbb6741541b7ccad4f3ba33944347e63bf9c5fe64736f6c63430008180033",
  "linkReferences": {},
  "deployedLinkReferences": {}
}